S0170000686F6D65206175746F6D6174696F6E2E7372656303
S113000012C019C018C017C016C015C014C013C040
S113001012C011C010C00FC00EC00DC00CC00BC068
S11300200AC009C008C011241FBECFE5D4E0DEBF5A
S1130030CDBF0FD09CC0E4CF88E18AB98EE880BDE3
S113004083E389B910BC08955F9BFECF8CB190E027
S11300500895F2DF8FEF87BBC12CD12CE12CF12C5A
S113006000E010E0C0E0D0E0AA24A394B12C812CDD
S1130070912C03C0650101C06401E6DF863439F4C4
S1130080209709F04BC0C29A54C0C29852C082341F
S113009009F04CC00115110509F044C0C39A52C0BF
S11300A0C39850C0E114F10409F047C0C09A0CC0D1
S11300B0C0980AC0C114D10409F048C0C19A0DC047
S11300C0C1980BC018BA12C0813739F4209709F4CB
S11300D042C0C130D105A9F440C0893739F40115B3
S11300E01105E9F10130110541F63BC08A3749F4A5
S11300F0E114F104C1F181E0E816F10409F0BDCF87
S113010034C0843709F0B9CFC114D10409F4B2CF93
S113011091E0C916D10409F0B0CFAECFC130D105FA
S113012041F4B3CF0130110569F4BACF823509F433
S1130130B9CF8C3409F4BECF05C091E0E916F104BF
S113014019F6B6CF833509F4BDCFBECF91E0C916F9
S1130150D10419F6B5CFE501D4CFE401D2CF85019E
S11301608CCF84018ACF750188CF740186CFF8942F
S1050170FFCFBB
S9030000FC
